{
  "_format": "hh-sol-artifact-1",
  "contractName": "tweet",
  "sourceName": "contracts/tweet.sol",
  "abi": [
    {
      "inputs": [],
      "stateMutability": "nonpayable",
      "type": "constructor"
    },
    {
      "anonymous": false,
      "inputs": [
        {
          "indexed": false,
          "internalType": "address",
          "name": "liker",
          "type": "address"
        },
        {
          "indexed": false,
          "internalType": "address",
          "name": "admin",
          "type": "address"
        },
        {
          "indexed": false,
          "internalType": "uint256",
          "name": "id",
          "type": "uint256"
        },
        {
          "indexed": false,
          "internalType": "uint256",
          "name": "likecount",
          "type": "uint256"
        }
      ],
      "name": "event_like",
      "type": "event"
    },
    {
      "anonymous": false,
      "inputs": [
        {
          "indexed": false,
          "internalType": "uint256",
          "name": "id",
          "type": "uint256"
        },
        {
          "indexed": false,
          "internalType": "address",
          "name": "admin",
          "type": "address"
        },
        {
          "indexed": false,
          "internalType": "string",
          "name": "content",
          "type": "string"
        },
        {
          "indexed": false,
          "internalType": "uint256",
          "name": "timestamp",
          "type": "uint256"
        },
        {
          "indexed": false,
          "internalType": "uint256",
          "name": "likes",
          "type": "uint256"
        }
      ],
      "name": "tweetcreated",
      "type": "event"
    },
    {
      "inputs": [
        {
          "internalType": "address",
          "name": "_admin",
          "type": "address"
        }
      ],
      "name": "getfulltweet",
      "outputs": [
        {
          "components": [
            {
              "internalType": "uint256",
              "name": "id",
              "type": "uint256"
            },
            {
              "internalType": "address",
              "name": "admin",
              "type": "address"
            },
            {
              "internalType": "string",
              "name": "content",
              "type": "string"
            },
            {
              "internalType": "uint256",
              "name": "timestamp",
              "type": "uint256"
            },
            {
              "internalType": "uint256",
              "name": "likes",
              "type": "uint256"
            }
          ],
          "internalType": "struct tweet.Ntweet[]",
          "name": "",
          "type": "tuple[]"
        }
      ],
      "stateMutability": "view",
      "type": "function"
    },
    {
      "inputs": [
        {
          "internalType": "address",
          "name": "_admin",
          "type": "address"
        },
        {
          "internalType": "uint256",
          "name": "_i",
          "type": "uint256"
        }
      ],
      "name": "gettweet",
      "outputs": [
        {
          "components": [
            {
              "internalType": "uint256",
              "name": "id",
              "type": "uint256"
            },
            {
              "internalType": "address",
              "name": "admin",
              "type": "address"
            },
            {
              "internalType": "string",
              "name": "content",
              "type": "string"
            },
            {
              "internalType": "uint256",
              "name": "timestamp",
              "type": "uint256"
            },
            {
              "internalType": "uint256",
              "name": "likes",
              "type": "uint256"
            }
          ],
          "internalType": "struct tweet.Ntweet",
          "name": "",
          "type": "tuple"
        }
      ],
      "stateMutability": "view",
      "type": "function"
    },
    {
      "inputs": [
        {
          "internalType": "address",
          "name": "author",
          "type": "address"
        },
        {
          "internalType": "uint256",
          "name": "id",
          "type": "uint256"
        }
      ],
      "name": "liketweet",
      "outputs": [],
      "stateMutability": "nonpayable",
      "type": "function"
    },
    {
      "inputs": [],
      "name": "maxl",
      "outputs": [
        {
          "internalType": "uint256",
          "name": "",
          "type": "uint256"
        }
      ],
      "stateMutability": "view",
      "type": "function"
    },
    {
      "inputs": [
        {
          "internalType": "uint256",
          "name": "newl",
          "type": "uint256"
        }
      ],
      "name": "modify",
      "outputs": [],
      "stateMutability": "nonpayable",
      "type": "function"
    },
    {
      "inputs": [],
      "name": "owner",
      "outputs": [
        {
          "internalType": "address",
          "name": "",
          "type": "address"
        }
      ],
      "stateMutability": "view",
      "type": "function"
    },
    {
      "inputs": [
        {
          "internalType": "string",
          "name": "_user",
          "type": "string"
        }
      ],
      "name": "posttweet",
      "outputs": [],
      "stateMutability": "nonpayable",
      "type": "function"
    },
    {
      "inputs": [
        {
          "internalType": "address",
          "name": "_author",
          "type": "address"
        }
      ],
      "name": "totaltweet",
      "outputs": [
        {
          "internalType": "uint256",
          "name": "",
          "type": "uint256"
        }
      ],
      "stateMutability": "view",
      "type": "function"
    },
    {
      "inputs": [
        {
          "internalType": "address",
          "name": "",
          "type": "address"
        },
        {
          "internalType": "uint256",
          "name": "",
          "type": "uint256"
        }
      ],
      "name": "tweets",
      "outputs": [
        {
          "internalType": "uint256",
          "name": "id",
          "type": "uint256"
        },
        {
          "internalType": "address",
          "name": "admin",
          "type": "address"
        },
        {
          "internalType": "string",
          "name": "content",
          "type": "string"
        },
        {
          "internalType": "uint256",
          "name": "timestamp",
          "type": "uint256"
        },
        {
          "internalType": "uint256",
          "name": "likes",
          "type": "uint256"
        }
      ],
      "stateMutability": "view",
      "type": "function"
    },
    {
      "inputs": [
        {
          "internalType": "address",
          "name": "author",
          "type": "address"
        },
        {
          "internalType": "uint256",
          "name": "id",
          "type": "uint256"
        }
      ],
      "name": "unliketweet",
      "outputs": [],
      "stateMutability": "nonpayable",
      "type": "function"
    }
  ],
  "bytecode": "0x6080604052609660005534801561001557600080fd5b5033600160006101000a81548173ffffffffffffffffffffffffffffffffffffffff021916908373ffffffffffffffffffffffffffffffffffffffff160217905550611a99806100666000396000f3fe608060405234801561001057600080fd5b506004361061009e5760003560e01c8063916adad011610066578063916adad014610171578063d4333cd01461018d578063d6650978146101a9578063d7af0d70146101d9578063e2f56d5c146101f55761009e565b806305a1b4a9146100a35780630ae0dd06146100d75780630fb2a5ce146100f35780635f4c9e7b146101235780638da5cb5b14610153575b600080fd5b6100bd60048036038101906100b89190610f03565b610213565b6040516100ce959493929190610ff1565b60405180910390f35b6100f160048036038101906100ec9190611180565b61030e565b005b61010d600480360381019061010891906111c9565b610515565b60405161011a91906111f6565b60405180910390f35b61013d600480360381019061013891906111c9565b6106a8565b60405161014a91906113b1565b60405180910390f35b61015b61084c565b60405161016891906113d3565b60405180910390f35b61018b600480360381019061018691906113ee565b610872565b005b6101a760048036038101906101a29190610f03565b61090c565b005b6101c360048036038101906101be9190610f03565b610acb565b6040516101d09190611491565b60405180910390f35b6101f360048036038101906101ee9190610f03565b610c4b565b005b6101fd610e10565b60405161020a91906111f6565b60405180910390f35b6002602052816000526040600020818154811061022f57600080fd5b9060005260206000209060050201600091509150508060000154908060010160009054906101000a900473ffffffffffffffffffffffffffffffffffffffff169080600201805461027f906114e2565b80601f01602080910402602001604051908101604052809291908181526020018280546102ab906114e2565b80156102f85780601f106102cd576101008083540402835291602001916102f8565b820191906000526020600020905b8154815290600101906020018083116102db57829003601f168201915b5050505050908060030154908060040154905085565b60005481511115610354576040517f08c379a000000000000000000000000000000000000000000000000000000000815260040161034b9061155f565b60405180910390fd5b60006040518060a00160405280600260003373ffffffffffffffffffffffffffffffffffffffff1673ffffffffffffffffffffffffffffffffffffffff1681526020019081526020016000208054905081526020013373ffffffffffffffffffffffffffffffffffffffff16815260200183815260200142815260200160008152509050600260003373ffffffffffffffffffffffffffffffffffffffff1673ffffffffffffffffffffffffffffffffffffffff1681526020019081526020016000208190806001815401808255809150506001900390600052602060002090600502016000909190919091506000820151816000015560208201518160010160006101000a81548173ffffffffffffffffffffffffffffffffffffffff021916908373ffffffffffffffffffffffffffffffffffffffff16021790555060408201518160020190816104a7919061172b565b50606082015181600301556080820151816004015550507f5ba4b2ecb41aacb264157cee32ad213d6d28a14577173c2188abc0b8f45fabe981600001518260200151836040015184606001518560800151604051610509959493929190610ff1565b60405180910390a15050565b60008060005b600260008573ffffffffffffffffffffffffffffffffffffffff1673ffffffffffffffffffffffffffffffffffffffff1681526020019081526020016000208054905081101561069e578373ffffffffffffffffffffffffffffffffffffffff16600260008673ffffffffffffffffffffffffffffffffffffffff1673ffffffffffffffffffffffffffffffffffffffff16815260200190815260200160002082815481106105cd576105cc6117fd565b5b906000526020600020906005020160010160009054906101000a900473ffffffffffffffffffffffffffffffffffffffff1673ffffffffffffffffffffffffffffffffffffffff160361068b57600260008573ffffffffffffffffffffffffffffffffffffffff1673ffffffffffffffffffffffffffffffffffffffff168152602001908152602001600020818154811061066b5761066a6117fd565b5b90600052602060002090600502016004015482610688919061185b565b91505b80806106969061188f565b91505061051b565b5080915050919050565b6060600260008373ffffffffffffffffffffffffffffffffffffffff1673ffffffffffffffffffffffffffffffffffffffff168152602001908152602001600020805480602002602001604051908101604052809291908181526020016000905b8282101561084157838290600052602060002090600502016040518060a0016040529081600082015481526020016001820160009054906101000a900473ffffffffffffffffffffffffffffffffffffffff1673ffffffffffffffffffffffffffffffffffffffff1673ffffffffffffffffffffffffffffffffffffffff16815260200160028201805461079c906114e2565b80601f01602080910402602001604051908101604052809291908181526020018280546107c8906114e2565b80156108155780601f106107ea57610100808354040283529160200191610815565b820191906000526020600020905b8154815290600101906020018083116107f857829003601f168201915b505050505081526020016003820154815260200160048201548152505081526020019060010190610709565b505050509050919050565b600160009054906101000a900473ffffffffffffffffffffffffffffffffffffffff1681565b3373ffffffffffffffffffffffffffffffffffffffff16600160009054906101000a900473ffffffffffffffffffffffffffffffffffffffff1673ffffffffffffffffffffffffffffffffffffffff1614610902576040517f08c379a00000000000000000000000000000000000000000000000000000000081526004016108f990611923565b60405180910390fd5b8060008190555050565b80600260008473ffffffffffffffffffffffffffffffffffffffff1673ffffffffffffffffffffffffffffffffffffffff168152602001908152602001600020828154811061095e5761095d6117fd565b5b906000526020600020906005020160000154146109b0576040517f08c379a00000000000000000000000000000000000000000000000000000000081526004016109a79061198f565b60405180910390fd5b600260008373ffffffffffffffffffffffffffffffffffffffff1673ffffffffffffffffffffffffffffffffffffffff1681526020019081526020016000208181548110610a0157610a006117fd565b5b90600052602060002090600502016004016000815480929190610a239061188f565b91905055507f278d03ed159e1b14c010e438e17422c1ac722c209033ddbedecae3e58716b565338383600260008773ffffffffffffffffffffffffffffffffffffffff1673ffffffffffffffffffffffffffffffffffffffff1681526020019081526020016000208581548110610a9d57610a9c6117fd565b5b906000526020600020906005020160040154604051610abf94939291906119af565b60405180910390a15050565b610ad3610e16565b600260008473ffffffffffffffffffffffffffffffffffffffff1673ffffffffffffffffffffffffffffffffffffffff1681526020019081526020016000208281548110610b2457610b236117fd565b5b90600052602060002090600502016040518060a0016040529081600082015481526020016001820160009054906101000a900473ffffffffffffffffffffffffffffffffffffffff1673ffffffffffffffffffffffffffffffffffffffff1673ffffffffffffffffffffffffffffffffffffffff168152602001600282018054610bad906114e2565b80601f0160208091040260200160405190810160405280929190818152602001828054610bd9906114e2565b8015610c265780601f10610bfb57610100808354040283529160200191610c26565b820191906000526020600020905b815481529060010190602001808311610c0957829003601f168201915b5050505050815260200160038201548152602001600482015481525050905092915050565b6001600260008473ffffffffffffffffffffffffffffffffffffffff1673ffffffffffffffffffffffffffffffffffffffff1681526020019081526020016000208281548110610c9e57610c9d6117fd565b5b90600052602060002090600502016004015410610cf0576040517f08c379a0000000000000000000000000000000000000000000000000000000008152600401610ce790611a1a565b60405180910390fd5b80600260008473ffffffffffffffffffffffffffffffffffffffff1673ffffffffffffffffffffffffffffffffffffffff1681526020019081526020016000208281548110610d4257610d416117fd565b5b90600052602060002090600502016000015414610d94576040517f08c379a0000000000000000000000000000000000000000000000000000000008152600401610d8b9061198f565b60405180910390fd5b600260008373ffffffffffffffffffffffffffffffffffffffff1673ffffffffffffffffffffffffffffffffffffffff1681526020019081526020016000208181548110610de557610de46117fd565b5b90600052602060002090600502016004016000815480929190610e0790611a3a565b91905055505050565b60005481565b6040518060a0016040528060008152602001600073ffffffffffffffffffffffffffffffffffffffff1681526020016060815260200160008152602001600081525090565b6000604051905090565b600080fd5b600080fd5b600073ffffffffffffffffffffffffffffffffffffffff82169050919050565b6000610e9a82610e6f565b9050919050565b610eaa81610e8f565b8114610eb557600080fd5b50565b600081359050610ec781610ea1565b92915050565b6000819050919050565b610ee081610ecd565b8114610eeb57600080fd5b50565b600081359050610efd81610ed7565b92915050565b60008060408385031215610f1a57610f19610e65565b5b6000610f2885828601610eb8565b9250506020610f3985828601610eee565b9150509250929050565b610f4c81610ecd565b82525050565b610f5b81610e8f565b82525050565b600081519050919050565b600082825260208201905092915050565b60005b83811015610f9b578082015181840152602081019050610f80565b60008484015250505050565b6000601f19601f8301169050919050565b6000610fc382610f61565b610fcd8185610f6c565b9350610fdd818560208601610f7d565b610fe681610fa7565b840191505092915050565b600060a0820190506110066000830188610f43565b6110136020830187610f52565b81810360408301526110258186610fb8565b90506110346060830185610f43565b6110416080830184610f43565b9695505050505050565b600080fd5b600080fd5b7f4e487b7100000000000000000000000000000000000000000000000000000000600052604160045260246000fd5b61108d82610fa7565b810181811067ffffffffffffffff821117156110ac576110ab611055565b5b80604052505050565b60006110bf610e5b565b90506110cb8282611084565b919050565b600067ffffffffffffffff8211156110eb576110ea611055565b5b6110f482610fa7565b9050602081019050919050565b82818337600083830152505050565b600061112361111e846110d0565b6110b5565b90508281526020810184848401111561113f5761113e611050565b5b61114a848285611101565b509392505050565b600082601f8301126111675761116661104b565b5b8135611177848260208601611110565b91505092915050565b60006020828403121561119657611195610e65565b5b600082013567ffffffffffffffff8111156111b4576111b3610e6a565b5b6111c084828501611152565b91505092915050565b6000602082840312156111df576111de610e65565b5b60006111ed84828501610eb8565b91505092915050565b600060208201905061120b6000830184610f43565b92915050565b600081519050919050565b600082825260208201905092915050565b6000819050602082019050919050565b61124681610ecd565b82525050565b61125581610e8f565b82525050565b600082825260208201905092915050565b600061127782610f61565b611281818561125b565b9350611291818560208601610f7d565b61129a81610fa7565b840191505092915050565b600060a0830160008301516112bd600086018261123d565b5060208301516112d0602086018261124c565b50604083015184820360408601526112e8828261126c565b91505060608301516112fd606086018261123d565b506080830151611310608086018261123d565b508091505092915050565b600061132783836112a5565b905092915050565b6000602082019050919050565b600061134782611211565b611351818561121c565b9350836020820285016113638561122d565b8060005b8581101561139f5784840389528151611380858261131b565b945061138b8361132f565b925060208a01995050600181019050611367565b50829750879550505050505092915050565b600060208201905081810360008301526113cb818461133c565b905092915050565b60006020820190506113e86000830184610f52565b92915050565b60006020828403121561140457611403610e65565b5b600061141284828501610eee565b91505092915050565b600060a083016000830151611433600086018261123d565b506020830151611446602086018261124c565b506040830151848203604086015261145e828261126c565b9150506060830151611473606086018261123d565b506080830151611486608086018261123d565b508091505092915050565b600060208201905081810360008301526114ab818461141b565b905092915050565b7f4e487b7100000000000000000000000000000000000000000000000000000000600052602260045260246000fd5b600060028204905060018216806114fa57607f821691505b60208210810361150d5761150c6114b3565b5b50919050565b7f746865206c656e677468206f66207477656574206973206d6f72652000000000600082015250565b6000611549601c83610f6c565b915061155482611513565b602082019050919050565b600060208201905081810360008301526115788161153c565b9050919050565b60008190508160005260206000209050919050565b60006020601f8301049050919050565b600082821b905092915050565b6000600883026115e17fffffffffffffffffffffffffffffffffffffffffffffffffffffffffffffffff826115a4565b6115eb86836115a4565b95508019841693508086168417925050509392505050565b6000819050919050565b600061162861162361161e84610ecd565b611603565b610ecd565b9050919050565b6000819050919050565b6116428361160d565b61165661164e8261162f565b8484546115b1565b825550505050565b600090565b61166b61165e565b611676818484611639565b505050565b5b8181101561169a5761168f600082611663565b60018101905061167c565b5050565b601f8211156116df576116b08161157f565b6116b984611594565b810160208510156116c8578190505b6116dc6116d485611594565b83018261167b565b50505b505050565b600082821c905092915050565b6000611702600019846008026116e4565b1980831691505092915050565b600061171b83836116f1565b9150826002028217905092915050565b61173482610f61565b67ffffffffffffffff81111561174d5761174c611055565b5b61175782546114e2565b61176282828561169e565b600060209050601f8311600181146117955760008415611783578287015190505b61178d858261170f565b8655506117f5565b601f1984166117a38661157f565b60005b828110156117cb578489015182556001820191506020850194506020810190506117a6565b868310156117e857848901516117e4601f8916826116f1565b8355505b6001600288020188555050505b505050505050565b7f4e487b7100000000000000000000000000000000000000000000000000000000600052603260045260246000fd5b7f4e487b7100000000000000000000000000000000000000000000000000000000600052601160045260246000fd5b600061186682610ecd565b915061187183610ecd565b92508282019050808211156118895761188861182c565b5b92915050565b600061189a82610ecd565b91507fffffffffffffffffffffffffffffffffffffffffffffffffffffffffffffffff82036118cc576118cb61182c565b5b600182019050919050565b7f596f7520617265206e6f7420746865204f776e65720000000000000000000000600082015250565b600061190d601583610f6c565b9150611918826118d7565b602082019050919050565b6000602082019050818103600083015261193c81611900565b9050919050565b7f547765657420646f6573206e6f74206578697374000000000000000000000000600082015250565b6000611979601483610f6c565b915061198482611943565b602082019050919050565b600060208201905081810360008301526119a88161196c565b9050919050565b60006080820190506119c46000830187610f52565b6119d16020830186610f52565b6119de6040830185610f43565b6119eb6060830184610f43565b95945050505050565b50565b6000611a04600083610f6c565b9150611a0f826119f4565b600082019050919050565b60006020820190508181036000830152611a33816119f7565b9050919050565b6000611a4582610ecd565b915060008203611a5857611a5761182c565b5b60018203905091905056fea264697066735822122070cd14786ead0ef9ff28ab057038319d7314185b6a6b671f35c9de691441dfb564736f6c63430008130033",
  "linkReferences": {},
  "deployedLinkReferences": {}
}